:100000000C94CF000C94F8000C9415010C94EC00A7
:100010000C94EC000C94EC000C94EC000C94EC00B0
:100020000C94EC000C94EC000C94EC000C94EC00A0
:100030000C94EC000C94EC000C94EC000C94EC0090
:100040000C94EC000C94EC000C94EC000C94EC0080
:100050000C94EC000C94EC000C94EC000C94EC0070
:100060000C94EC000C94EC004E414E494E4954590E
:10007000494E46CDCCCC3D0AD7233C17B7D1387773
:10008000CC2B329595E6241FB14F0A000020410089
:1000900000C84200401C4620BCBE4CCA1B0E5AAED3
:1000A000C59D7400407A10F35A00A0724E180900E2
:1000B00010A5D4E80000E87648170000E40B5402CD
:1000C0000000CA9A3B000000E1F505000080969808
:1000D00000000040420F000000A086010000001058
:1000E0002700000000E8030000000064000000009A
:1000F000000A00000000000100000000002C76D87B
:1001000088DC674F0823DFC1DFAE59E1B1B796E560
:10011000E3E453C63AE651997696E8E6C28426EBC4
:10012000898C9B62ED407C6FFCEFBC9C9F40F2BAD7
:10013000A56FA5F490055A2AF75C936B6CF9676D6F
:10014000C11BFCE0E40D47FEF520E6B500D0ED90C4
:100150002E0300943577050080841E080000204E91
:100160000A000000C80C333333330F986E1283112A
:1001700041EF8D2114893BE65516CFFEE6DB18D101
:10018000844B381BF77C1D901DA4BBE424203284D3
:10019000725E228100C9F124ECA1E53D2700112403
:1001A0001FBECFEFD8E0DEBFCDBF11E0A0E0B1E0D1
:1001B000E6EDFEE002C005900D92A232B107D9F73C
:1001C00021E0A2E2B1E001C01D92A432B207E1F742
:1001D0000E94FB010C9469070C940000E9E6F0E032
:1001E00080818F6080838DB383608DBB7894089508
:1001F0001F920F920FB60F9211242F938F939F93FC
:100200002FEF81EE94E0215080409040E1F700C054
:10021000000085B191E0892785B99F918F912F9139
:100220000F900FBE0F901F9018951F920F920FB650
:100230000F9211242F933F934F935F936F937F936C
:100240008F939F93AF93BF93EF93FF930E94F80018
:10025000FF91EF91BF91AF919F918F917F916F919E
:100260005F914F913F912F910F900FBE0F901F9074
:100270001895E0ECF0E080818D7F8083E1ECF0E088
:1002800080818861808380818B7F8083E2ECF0E0D5
:1002900080818F7380838081866080831092C50007
:1002A00087E68093C40008959091C00095FFFCCF2D
:1002B0008093C6000895CF93DF93EC01899181115B
:1002C00003C0DF91CF9108950E945401F7CF0F939F
:1002D0001F93CF93DF93CDB7DEB764970FB6F89433
:1002E000DEBF0FBECDBF8E010F5F1F4F24E030E099
:1002F00048E050E00E946402C8010E945B016496DD
:100300000FB6F894DEBF0FBECDBFDF91CF911F9126
:100310000F9108958091C00087FFFCCF8091C600A7
:100320000895AF92BF92CF92DF92EF92FF920F9318
:100330001F93CF93DF93CDB7DEB764970FB6F894D2
:10034000DEBF0FBECDBF8E010F5F1F4F84E1F801EE
:1003500011928A95E9F768015801F12CE12C0E946D
:100360008A018A3061F08D3051F0FFEFEF1AFF0AF9
:10037000F50181935F01F3E1EF16F10481F7F801D4
:10038000EE0DFF1D1082780184E1E80EF11CCE1401
:10039000DF04D1F4C8010E948202BC01990F880BCE
:1003A000990B0E94290264960FB6F894DEBF0FBE27
:1003B000CDBFDF91CF911F910F91FF90EF90DF9014
:1003C000CF90BF90AF900895F60181916F010E9488
:1003D0005401DDCFCF93DF931F92CDB7DEB780916D
:1003E000C00087FD04C00F90DF91CF9108958091E8
:1003F000C6008983F4CF8AB18C608AB98BB18C60D6
:100400008BB981E084B90E94EE000E94390180E03E
:1004100091E00E945B010E94EA010E9491016B0140
:100420007C018EE091E00E945B01C701B6010E9451
:1004300067018EE191E00E945B012FEF84E39CE075
:10044000215080409040E1F700C00000E0CFE894E8
:1004500009C097FB3EF490958095709561957F4F0C
:100460008F4F9F4F9923A9F0F92F96E9BB279395BA
:10047000F695879577956795B795F111F8CFFAF4CA
:10048000BB0F11F460FF1BC06F5F7F4F8F4F9F4FFB
:1004900016C0882311F096E911C0772321F09EE859
:1004A000872F762F05C0662371F096E8862F70E0BF
:1004B00060E02AF09A95660F771F881FDAF7880F99
:1004C0009695879597F90895EF920F931F93CF9381
:1004D000DF93E80134E047FD34E1042E000C550BB6
:1004E00057FF03C0519541955109E32E022F242F48
:1004F000AE010E948602CE01DF91CF911F910F9134
:10050000EF900895662777270C94E503A9E0B0E003
:10051000ECE8F2E00C9429076A01F22EB02E102FBD
:10052000FBE3AF2EA01608F41BE31F5F012F27E0AB
:10053000AE014F5F5F4F0E943505BC018981982F46
:100540009970913009F43FC09BE2E1FC04C09E2DFC
:100550009170E0FC3AC05E2D5071E82FE87083FF87
:1005600046C084E0911101C083E0EF2DE81B8F1598
:1005700008F0E0E0D6018E2F20E2552351F19923B7
:1005800029F0D6019C93C60101966C0196012D5F5E
:100590003F4FE2FE24C08EE4D6018C9391E4119685
:1005A0009C93119712968C93D9018E2F90E2811112
:1005B0001BC0E20FF32FF11D10828EEF9FEF2996E3
:1005C000ECE00C9445079DE2C6CF90E2C4CF2D939A
:1005D00081508111FCCFCE0ED11CE0E0D0CF8EE651
:1005E000D6018C9391E6DBCF9D938150E0CF482FCD
:1005F000447082FF3DC084E0911101C083E08F15FB
:1006000010F4EF2DE81BD6018E2F20E2552309F1BF
:10061000992329F0D6019C93C60101966C0196019D
:100620002D5F3F4FE2FE1BC089E4D6018C938EE420
:1006300011968C93119786E412968C93D9018E2F84
:1006400090E2882309F4B5CF9D938150FACF2D9382
:1006500081508111FCCFCE0ED11CE0E0D9CF89E6CC
:10066000D6018C938EE611968C93119786E6E4CF93
:100670009B0177FF02C030E020E0A1E0B0E09111E3
:1006800002C0B0E0A0E0F9013196AE0FBF1F8B2C85
:10069000912CBB2009F461C05401EFEFAE1ABE0AE1
:1006A000AA0DBB1DFA161B0619F014F04F2D4A1B9C
:1006B000511188C0E3FC59C07601A42FB0E2A1110A
:1006C0004FC0C40ED11C992309F45BC040E0D60191
:1006D0001196F60190836D01552309F448C0012F4E
:1006E000060F9A81582F507184FF03C0913309F48B
:1006F000015010160CF047C0093008F008E0EEE297
:10070000FE2E5B01A01AB108850191948194910895
:100710002F3F320729F4D601FC92F60131966F0182
:100720006217730794F1021713077CF5DB01A21B14
:10073000B30BAA24A394B12CAC0EBD1EAA0DBB1DF5
:1007400011968C9121503109D60111962815390541
:10075000F4F0F60180836D01DBCFB12CA12CA0CF8A
:10076000F701B1937F01A150AACF9111B0CFD6016B
:10077000942F50E302C05D9391509111FCCFC40EB1
:10078000D11C40E0ACCF01E0BACF80E3DBCF6217F1
:10079000730731F4963388F4953311F4552369F0D7
:1007A000F6018083FD01842F90E2811108C0A40F1F
:1007B000B11D1C9290E080E002CF81E3F1CF9193D4
:1007C0008150F3CF911183CF8ACFB0E0A0E0EBEE60
:1007D000F3E00C9429075C017B016115710519F0A8
:1007E000DB018D939C9385010F5F1F4FF501D08135
:1007F0008D2F90E00E940D066C01892BB9F5DD323A
:10080000B9F50F5F1F4FD5011196DC91C1E058017A
:10081000F1E0AF1AB10843E050E060E770E0C501D5
:100820000E941606892B69F5680182E0C80ED11C6A
:1008300045E050E06BE670E0C6010E941606892B89
:1008400021F4680197E0C90ED11CE114F10419F0FC
:10085000D701CD92DC9260E070E080E89FEFC1119B
:10086000FFC060E070E080E89FE7FAC05801BBCFAE
:10087000DB3229F485010E5F1F4FF501D181C0E005
:10088000C6CF43E050E068E670E0C5010E9416065E
:10089000892BE9F0F80110E000E020E030E0A90148
:1008A0005F01B0ED8B2E8D0E89E08815C8F19C2E6E
:1008B000689491F88C2F8870C2FF16C0811102C015
:1008C0000F5F1F4F3196D501DC91C92DE9CFE1149F
:1008D000F10429F00E5F1F4FF7011183008360E0E0
:1008E00070E080EC9FE7BCC0882311F00150110933
:1008F000A5E0B0E00E9418079B01AC01220F331F56
:10090000441F551F280D311D411D511D283999E9DE
:100910003907490799E15907A8F2C6609C2ED2CF42
:10092000AEEF8A1206C0C3FD3CC09C2E689493F8BB
:10093000C9CFDF7DD534A9F580818D3239F4C0610E
:10094000DF011296818162E070E006C0DF018B3228
:10095000C1F3119661E070E080535D01A61AB70AF9
:100960008A30F8F4E0E8CE16ECE0DE065CF4B6017E
:10097000660F771F660F771FC60ED71ECC0CDD1CC7
:10098000C80ED11C5D01FFEFAF1ABF0A8C918053D6
:100990008A30A8F1C4FF03C0D194C194D1080C0DD2
:1009A0001D1DC1FF09C0E114F10431F081E0A81A56
:1009B000B108D701AD92BC92CA01B9010E942702C9
:1009C000C370C33009F490584B015C0120E030E063
:1009D000A9010E942E06882309F440C0CFE9D0E087
:1009E00017FF05C0119501951109C7E8D0E06E0108
:1009F000B8E1CB1AD10880E2E82EF12C0FC0D50166
:100A0000B1CFFE0125913591459154910E191F09E1
:100A1000C501B4010E9457064B015C01D501C40118
:100A20000E151F0574F72497F594E794CC16DD0690
:100A3000A9F78A2F880F8B2F881F8F3F49F020E05E
:100A400030E0A901C501B4010E942E06811106C043
:100A500082E290E09093230180932201C501B401CA
:100A6000CDB7DEB7ECE00C944507283008F027E05E
:100A70003327DA01990F311D87FD916000966105DA
:100A8000710539F432602E5F3D9330E32A95E1F72A
:100A900008959F3F30F080387105610509F03C5F93
:100AA0003C5F3D93913008F08068911DDF93CF93B8
:100AB0001F930F93FF92EF92192F987F9695E92F2E
:100AC00096959695E90FFF27E350FF4F9927332717
:100AD000EE24FF24A701E70105900894079428F469
:100AE000360FE71EF81E491F511D660F771F881F1E
:100AF000991F0694A1F70590079428F4E70EF81EB5
:100B0000491F561FC11D770F881F991F661F069426
:100B1000A1F70590079428F4F80E491F561FC71F28
:100B2000D11D880F991F661F771F0694A1F70590A6
:100B3000079420F4490F561FC71FD81F990F661F2F
:100B4000771F881F0694A9F784911095177041F0BC
:100B5000D695C79557954795F794E7941A95C1F799
:100B6000E3EAF0E0689415901591359165919591BF
:100B700005907FE27395E118F10A430B560BC90B00
:100B8000D009C0F7E10CF11E431F561FC91FD01D2D
:100B90007EF4703311F48A95E6CFE894015030F07A
:100BA000080F0AF40027021708F4202F2395022FBC
:100BB0007A3328F079E37D932A95E9F710C07D9385
:100BC0002A9589F606949795679537951795179402
:100BD000E118F10A430B560BC90BD00998F0239585
:100BE0007E9173957A3308F070E37C932013B8F705
:100BF0007E9170617D9330F0839571E37D9370E316
:100C00002A95E1F71124EF90FF900F911F91CF915A
:100C1000DF91992787FD9095089591110C94C40652
:100C2000803219F089508550C8F70895FB01DC0126
:100C30004150504088F08D9181341CF08B350CF47C
:100C4000805E659161341CF06B350CF4605E861B30
:100C5000611171F3990B0895881BFCCF0E94330634
:100C600008F481E00895990F0008550FAA0BE0E8F9
:100C7000FEEF16161706E807F907C0F0121613065E
:100C8000E407F50798F0621B730B840B950B39F49E
:100C90000A2661F0232B242B252B21F408950A2604
:100CA00009F4A140A6958FEF811D811D08950E9432
:100CB0006A060C94DE060E94D00638F00E94D70621
:100CC00020F0952311F00C94C7060C94CD06112446
:100CD0000C9412070E94EF0670F3959FC1F3950FD5
:100CE00050E0551F629FF001729FBB27F00DB11DB0
:100CF000639FAA27F00DB11DAA1F649F6627B00D40
:100D0000A11D661F829F2227B00DA11D621F739F28
:100D1000B00DA11D621F839FA00D611D221F749F36
:100D20003327A00D611D231F849F600D211D822F7D
:100D3000762F6A2F11249F5750409AF0F1F08823A4
:100D40004AF0EE0FFF1FBB1F661F771F881F9150D1
:100D50005040A9F79E3F510580F00C94C7060C94B3
:100D600012075F3FE4F3983ED4F386957795679535
:100D7000B795F795E7959F5FC1F7FE2B880F911DFB
:100D80009695879597F9089599278827089597F953
:100D90009F6780E870E060E008959FEF80EC089521
:100DA00000240A941616170618060906089500244A
:100DB0000A9412161306140605060895092E0394C4
:100DC000000C11F4882352F0BB0F40F4BF2B11F438
:100DD00060FF04C06F5F7F4F8F4F9F4F089557FD97
:100DE0009058440F551F59F05F3F71F04795880F99
:100DF00097FB991F61F09F3F79F087950895121630
:100E000013061406551FF2CF4695F1DF08C01616DB
:100E100017061806991FF1CF86957105610508948C
:100E20000895E894BB2766277727CB0197F90895A3
:100E30000E945A07A59F900DB49F900DA49F800D0E
:100E4000911D112408952F923F924F925F926F92BD
:100E50007F928F929F92AF92BF92CF92DF92EF924A
:100E6000FF920F931F93CF93DF93CDB7DEB7CA1BCB
:100E7000DB0B0FB6F894DEBF0FBECDBF09942A88F6
:100E8000398848885F846E847D848C849B84AA849E
:100E9000B984C884DF80EE80FD800C811B81AA812B
:100EA000B981CE0FD11D0FB6F894DEBF0FBECDBFF6
:100EB000ED010895A29FB001B39FC001A39F700DE3
:100EC000811D1124911DB29F700D811D1124911D52
:060ED0000895F894FFCF25
:100ED600496E70757420666C6F61743A2000596FA4
:100EE600757220666C6F61742069733A2000200A5F
:020EF6000000FA
:00000001FF
