:100000000C94B1000C94D2000C94EF000C94C60038
:100010000C94C6000C94C6000C94C6000C94C60048
:100020000C94C6000C94C6000C94C6000C94C60038
:100030000C94C6000C94C6000C94C6000C94C60028
:100040000C94C6000C94C6000C94C6000C94C60018
:100050000C94C6000C94C6000C94C6000C94C60008
:100060000C94C6000C94C60000407A10F35A00A00D
:10007000724E18090010A5D4E80000E87648170071
:1000800000E40B54020000CA9A3B000000E1F505B1
:10009000000080969800000040420F000000A086FB
:1000A00001000000102700000000E803000000002D
:1000B0006400000000000A000000000001000000D1
:1000C00000002C76D888DC674F0823DFC1DFAE59EB
:1000D000E1B1B796E5E3E453C63AE651997696E87E
:1000E000E6C28426EB898C9B62ED407C6FFCEFBC02
:1000F0009C9F40F2BAA56FA5F490055A2AF75C932D
:100100006B6CF9676DC11BFCE0E40D47FEF520E662
:10011000B500D0ED902E0300943577050080841E45
:10012000080000204E0A000000C80C333333330FA0
:10013000986E12831141EF8D2114893BE65516CF3D
:10014000FEE6DB18D1844B381BF77C1D901DA4BB49
:10015000E424203284725E228100C9F124ECA1E5FE
:100160003D2711241FBECFEFD8E0DEBFCDBF11E089
:10017000A0E0B1E0EAE7F8E002C005900D92A433F8
:10018000B107D9F70E947C010C943B040C94000049
:10019000E9E6F0E080818F6080838DB383608DBB62
:1001A000789408951F920F920FB60F9211242F93F7
:1001B0008F939F932FEF81EE94E0215080409040E9
:1001C000E1F700C0000085B191E0892785B99F91D2
:1001D0008F912F910F900FBE0F901F9018951F9227
:1001E0000F920FB60F9211242F933F934F935F936B
:1001F0006F937F938F939F93AF93BF93EF93FF93EF
:100200000E94D200FF91EF91BF91AF919F918F918A
:100210007F916F915F914F913F912F910F900FBE02
:100220000F901F901895E0ECF0E080818D7F808327
:10023000E1ECF0E080818861808380818B7F808326
:10024000E2ECF0E080818F73808380818660808320
:100250001092C50087E68093C40008959091C00075
:1002600095FFFCCF8093C6000895CF93DF93EC01F8
:100270008991811103C0DF91CF9108950E942E01D1
:10028000F7CF0F931F93CF93DF93CDB7DEB7A89728
:100290000FB6F894DEBF0FBECDBF8E010F5F1F4FAC
:1002A00024E030E050E040E00E94AF01C8010E942D
:1002B0003501A8960FB6F894DEBF0FBECDBFDF9113
:1002C000CF911F910F9108958091C00087FFFCCFBF
:1002D0008091C6000895CF93DF931F92CDB7DEB70C
:1002E0008091C00087FD04C00F90DF91CF910895E9
:1002F0008091C6008983F4CF8AB18C608AB98BB1B2
:100300008C608BB981E084B90E94C8000E941301FF
:100310000E946B0180E091E00E9435018FE39CE92F
:100320000197F1F700C000000E946401C82F8FE31D
:100330009CE90197F1F700C0000083E191E00E9481
:1003400035018C2F0E942E0183E291E00E9435013D
:1003500061E57BE68AEE90E40E944101D9CFEF92FD
:100360000F931F93CF93DF93E80134E047FD34E10F
:10037000042E000C550B57FF03C0519541955109B0
:10038000E32E022F242FAE010E94CD01CE01DF917A
:10039000CF911F910F91EF900895A9E0B0E0E3EDA8
:1003A000F1E00C940A046A01F22EB02E102FFBE348
:1003B000AF2EA01608F41BE31F5F012F27E0AE014C
:1003C0004F5F5F4F0E942C03BC018981982F997069
:1003D000913009F43FC09BE2E1FC04C09E2D917076
:1003E000E0FC3AC05E2D5071E82FE87083FF46C0F4
:1003F00084E0911101C083E0EF2DE81B8F1508F018
:10040000E0E0D6018E2F20E2552351F1992329F007
:10041000D6019C93C60101966C0196012D5F3F4F5A
:10042000E2FE24C08EE4D6018C9391E411969C9355
:10043000119712968C93D9018E2F90E281111BC0D7
:10044000E20FF32FF11D10828EEF9FEF2996ECE063
:100450000C9426049DE2C6CF90E2C4CF2D93815028
:100460008111FCCFCE0ED11CE0E0D0CF8EE6D601BC
:100470008C9391E6DBCF9D938150E0CF482F447061
:1004800082FF3DC084E0911101C083E08F1510F41C
:10049000EF2DE81BD6018E2F20E2552309F1992379
:1004A00029F0D6019C93C60101966C0196012D5F3F
:1004B0003F4FE2FE1BC089E4D6018C938EE4119677
:1004C0008C93119786E412968C93D9018E2F90E22B
:1004D000882309F4B5CF9D938150FACF2D93815095
:1004E0008111FCCFCE0ED11CE0E0D9CF89E6D60138
:1004F0008C938EE611968C93119786E6E4CF9B0140
:1005000077FF02C030E020E0A1E0B0E0911102C02E
:10051000B0E0A0E0F9013196AE0FBF1F8B2C912CFB
:10052000BB2009F461C05401EFEFAE1ABE0AAA0D58
:10053000BB1DFA161B0619F014F04F2D4A1B511162
:1005400088C0E3FC59C07601A42FB0E2A1114FC0CE
:10055000C40ED11C992309F45BC040E0D60111966A
:10056000F60190836D01552309F448C0012F060F51
:100570009A81582F507184FF03C0913309F40150C0
:1005800010160CF047C0093008F008E0EEE2FE2E2D
:100590005B01A01AB10885019194819491082F3FC5
:1005A000320729F4D601FC92F60131966F016217E9
:1005B000730794F1021713077CF5DB01A21BB30B41
:1005C000AA24A394B12CAC0EBD1EAA0DBB1D11967E
:1005D0008C9121503109D601119628153905F4F076
:1005E000F60180836D01DBCFB12CA12CA0CFF701E8
:1005F000B1937F01A150AACF9111B0CFD601942F12
:1006000050E302C05D9391509111FCCFC40ED11CF8
:1006100040E0ACCF01E0BACF80E3DBCF62177307D5
:1006200031F4963388F4953311F4552369F0F601CB
:100630008083FD01842F90E2811108C0A40FB11DB9
:100640001C9290E080E002CF81E3F1CF9193815042
:10065000F3CF911183CF8ACF283008F027E03327DA
:10066000DA01990F311D87FD9160009661057105D2
:1006700039F432602E5F3D9330E32A95E1F7089517
:100680009F3F30F080387105610509F03C5F3C5FA9
:100690003D93913008F08068911DDF93CF931F93B5
:1006A0000F93FF92EF92192F987F9695E92F9695C9
:1006B0009695E90FFF27EE53FF4F99273327EE2436
:1006C000FF24A701E70105900894079428F4360F4A
:1006D000E71EF81E491F511D660F771F881F991FBF
:1006E0000694A1F70590079428F4E70EF81E491F19
:1006F000561FC11D770F881F991F661F0694A1F70B
:100700000590079428F4F80E491F561FC71FD11DE6
:10071000880F991F661F771F0694A1F7059007940D
:1007200020F4490F561FC71FD81F990F661F771F48
:10073000881F0694A9F784911095177041F0D695FB
:10074000C79557954795F794E7941A95C1F7E8E64A
:10075000F0E068941590159135916591959105900B
:100760007FE27395E118F10A430B560BC90BD009D0
:10077000C0F7E10CF11E431F561FC91FD01D7EF4A8
:10078000703311F48A95E6CFE894015030F0080FE9
:100790000AF40027021708F4202F2395022F7A333A
:1007A00028F079E37D932A95E9F710C07D932A9587
:1007B00089F6069497956795379517951794E118DC
:1007C000F10A430B560BC90BD00998F023957E9183
:1007D00073957A3308F070E37C932013B8F77E9119
:1007E00070617D9330F0839571E37D9370E32A957A
:1007F000E1F71124EF90FF900F911F91CF91DF91BE
:10080000992787FD909508952F923F924F925F927E
:100810006F927F928F929F92AF92BF92CF92DF9210
:10082000EF92FF920F931F93CF93DF93CDB7DEB775
:10083000CA1BDB0B0FB6F894DEBF0FBECDBF099409
:100840002A88398848885F846E847D848C849B8460
:10085000AA84B984C884DF80EE80FD800C811B816E
:10086000AA81B981CE0FD11D0FB6F894DEBF0FBE9D
:0A087000CDBFED010895F894FFCF0D
:10087A000A496E7075742063686172616374657287
:10088A003A20000A596F7572206368617220697391
:10089A003A20000A466C6F6174206E756D6265724B
:0408AA003A200000F0
:00000001FF
