:100000000C9434000C944A000C946D000C943E0047
:100010000C943E000C943E000C943E000C943E0068
:100020000C943E000C943E000C943E000C943E0058
:100030000C943E000C943E000C943E000C943E0048
:100040000C943E000C943E000C943E000C943E0038
:100050000C943E000C943E000C943E000C943E0028
:100060000C943E000C943E0011241FBECFEFD8E04C
:10007000DEBFCDBF0E9490000C94DB000C9400000A
:10008000E9E6F0E080818F6080838DB383608DBB73
:10009000789408951F920F920FB60F9211242F9308
:1000A0003F938F939F93EF93FF9388EE93E020E924
:1000B00031E0F9013197F1F70197D9F785B191E076
:1000C000892785B9FF91EF919F918F913F912F9152
:1000D0000F900FBE0F901F9018951F920F920FB6A2
:1000E0000F9211242F933F938F939F93EF93FF933E
:1000F00088EE93E020E931E0F9013197F1F70197BB
:10010000D9F785B191E0892785B9FF91EF919F914A
:100110008F913F912F910F900FBE0F901F901895C8
:10012000CF93DF938AB18C608AB98BB18C608BB925
:1001300081E084B9809169008F60809369008DB3FC
:1001400083608DBB78940E94B200C0E9D1E084E462
:100150000E94CD0084EC99E0FE013197F1F7019700
:10016000D9F7F5CFE0ECF0E080818D7F8083E1EC82
:10017000F0E080818861808380818B7F8083E2ECE6
:10018000F0E080818F7B8083808186608083109205
:10019000C50087E68093C4000895982F8091C00021
:1001A00085FFFCCF9093C6000895089508950895A3
:0A01B000089508950895F894FFCF14
:00000001FF
